:020000040800F2
:1000000000000220FD0600085507000855070008FB
:1000100055070008550700085507000800000000B4
:10002000000000000000000000000000550700086C
:100030005507000800000000550700085707000892
:1000400000000000000000000000000000000000B0
:1000500000000000000000000000000000000000A0
:100060000000000000000000000000000000000090
:100070000000000000000000000000000000000080
:100080008500000870B446F20402C4F2020210684F
:1000900010F400604FEAD02000F0A18091A4DFF8B6
:1000A0004426116801F10101116046F20C02C4F20C
:1000B0000202116841F40061116046F28802C4F244
:1000C0000202106810F400204FEAD04040F039805E
:1000D00000F05E80DFF81026116801F10101116067
:1000E000DFF80026116801F10101116011F0010132
:1000F00006D04CA146F29402C4F2020211606EE0F6
:1001000038A146F29402C4F20202116067E0DFF8FF
:10011000DC25116801F101011160DFF8C8251168C3
:1001200011F0010106D047A146F29802C4F2020282
:10013000116054E033A146F29802C4F20202116049
:100140004DE0DFF8AC552E46DFF8A8351A88B2F539
:10015000806FA8BFA2F5806214444FF000011029FF
:1001600000F00F8034F8020B25F8020B02F10202B6
:10017000B2F5806FA8BFA2F5806201F10101FFF71F
:10018000EEBF1A6046F29402C4F20202166026E044
:10019000DFF864552E46DFF85C351A88B2F5806FBB
:1001A000A8BFA2F5806214444FF00001102900F0AE
:1001B0000F8034F8020B25F8020B02F10202B2F5AF
:1001C000806FA8BFA2F5806201F10101FFF7EEBFC9
:1001D0001A6046F29802C4F202021660FFE770BC91
:1001E000704700BF0000000100020003000400058A
:1001F0000006000700080009000A000B000C000DB3
:10020000000E000FFF0FFF0EFF0DFF0CFF0BFF0A8C
:10021000FF09FF08FF07FF06FF05FF04FF03FF02BA
:10022000FF01FF00000000000000000000000000CF
:1002300000000000FF0FFF0FFF0FFF0FFF0FFF0F6A
:10024000FF0FFF0FFF0FFF0FFF0FFF0FFF0FFF0F3E
:10025000FF0FFF0F00000000000000000000000082
:1002600000000000000F100F200F300F400F500F44
:10027000600F700F800F900FA00FB00FC00FD00F46
:10028000E00FF00FFF0FEF0FDF0FCF0FBF0FAF0F1C
:100290009F0F8F0F7F0F6F0F5F0F4F0F3F0F2F0FAE
:1002A0001F0F0F0FFF0FFF0EFF0DFF0CFF0BFF0ABD
:1002B000FF09FF08FF07FF06FF05FF04FF03FF021A
:1002C000FF01FF0000000001000200030004000520
:1002D0000006000700080009000A000B000C000DD2
:1002E000000E000F00001000200030004000500001
:1002F0006000700080009000A000B000C000D0003E
:10030000E000F00000011001200130014001500127
:100310006001700180019001A001B001C001D00115
:10032000E001F001000210022002300240025002FF
:100330006002700280029002A002B002C002D002ED
:10034000E002F002000310032003300340035003D7
:100350006003700380039003A003B003C003D003C5
:10036000E003F003000410042004300440045004AF
:100370006004700480049004A004B004C004D0049D
:10038000E004F00400051005200530054005500587
:100390006005700580059005A005B005C005D00575
:1003A000E005F0050006100620063006400650065F
:1003B0006006700680069006A006B006C006D0064D
:1003C000E006F00600071007200730074007500737
:1003D0006007700780079007A007B007C007D00725
:1003E000E007F0070008100820083008400850080F
:1003F0006008700880089008A008B008C008D008FD
:10040000E008F008000910092009300940095009E6
:100410006009700980099009A009B009C009D009D4
:10042000E009F009000A100A200A300A400A500ABE
:10043000600A700A800A900AA00AB00AC00AD00AAC
:10044000E00AF00A000B100B200B300B400B500B96
:10045000600B700B800B900BA00BB00BC00BD00B84
:10046000E00BF00B000C100C200C300C400C500C6E
:10047000600C700C800C900CA00CB00CC00CD00C5C
:10048000E00CF00C000D100D200D300D400D500D46
:10049000600D700D800D900DA00DB00DC00DD00D34
:1004A000E00DF00D000E100E200E300E400E500E1E
:1004B000600E700E800E900EA00EB00EC00ED00E0C
:1004C000E00EF00E000F100F200F300F400F500FF6
:1004D000600F700F800F900FA00FB00FC00FD00FE4
:1004E000E00FF00FFF0FEF0FDF0FCF0FBF0FAF0FBA
:1004F0009F0F8F0F7F0F6F0F5F0F4F0F3F0F2F0F4C
:100500001F0F0F0FFF0EEF0EDF0ECF0EBF0EAF0E41
:100510009F0E8F0E7F0E6F0E5F0E4F0E3F0E2F0E33
:100520001F0E0F0EFF0DEF0DDF0DCF0DBF0DAF0D29
:100530009F0D8F0D7F0D6F0D5F0D4F0D3F0D2F0D1B
:100540001F0D0F0DFF0CEF0CDF0CCF0CBF0CAF0C11
:100550009F0C8F0C7F0C6F0C5F0C4F0C3F0C2F0C03
:100560001F0C0F0CFF0BEF0BDF0BCF0BBF0BAF0BF9
:100570009F0B8F0B7F0B6F0B5F0B4F0B3F0B2F0BEB
:100580001F0B0F0BFF0AEF0ADF0ACF0ABF0AAF0AE1
:100590009F0A8F0A7F0A6F0A5F0A4F0A3F0A2F0AD3
:1005A0001F0A0F0AFF09EF09DF09CF09BF09AF09C9
:1005B0009F098F097F096F095F094F093F092F09BB
:1005C0001F090F09FF08EF08DF08CF08BF08AF08B1
:1005D0009F088F087F086F085F084F083F082F08A3
:1005E0001F080F08FF07EF07DF07CF07BF07AF0799
:1005F0009F078F077F076F075F074F073F072F078B
:100600001F070F07FF06EF06DF06CF06BF06AF0680
:100610009F068F067F066F065F064F063F062F0672
:100620001F060F06FF05EF05DF05CF05BF05AF0568
:100630009F058F057F056F055F054F053F052F055A
:100640001F050F05FF04EF04DF04CF04BF04AF0450
:100650009F048F047F046F045F044F043F042F0442
:100660001F040F04FF03EF03DF03CF03BF03AF0338
:100670009F038F037F036F035F034F033F032F032A
:100680001F030F03FF02EF02DF02CF02BF02AF0220
:100690009F028F027F026F025F024F023F022F0212
:1006A0001F020F02FF01EF01DF01CF01BF01AF0108
:1006B0009F018F017F016F015F014F013F012F01FA
:1006C0001F010F01FF00EF00DF00CF00BF00AF00F0
:1006D0009F008F007F006F005F004F003F002F00E2
:1006E0001F000F00100200200C0200200802002052
:1006F0000000002000020020000100201149104AE3
:10070000114B5B1A00F0078012F8014B01F8014B06
:10071000013B3FF7F9AF0D490D4B5B1A00F0078025
:100720004FF0000201F8012B013B3FF7FBAF0FF048
:1007300067FC4FF000004FF0000100F00FF8FEE7FB
:1007400064070008000000200000002000000020D6
:10075000080200207047FFF795FC000080B400AF4E
:04076000FEE700BFF1
:04000005080006FDEC
:00000001FF
