:020000040800F2
:1000000000000220312300088D2300088D23000802
:100010008D2300088D2300088D23000800000000B8
:100020000000000000000000000000008D23000818
:100030008D230008000000008D2300088F23000896
:1000400000000000000000000000000000000000B0
:1000500000000000000000000000000000000000A0
:100060000000000000000000000000000000000090
:100070000000000000000000000000000000000080
:100080008500000870B446F20402C4F2020210684F
:1000900010F400604FEAD02000F0A18091A4DFF8B6
:1000A0004426116801F10101116046F20C02C4F20C
:1000B0000202116841F40061116046F28802C4F244
:1000C0000202106810F400204FEAD04040F039805E
:1000D00000F05E80DFF81026116801F10101116067
:1000E000DFF80026116801F10101116011F0010132
:1000F00006D04CA146F29402C4F2020211606EE0F6
:1001000038A146F29402C4F20202116067E0DFF8FF
:10011000DC25116801F101011160DFF8C8251168C3
:1001200011F0010106D047A146F29802C4F2020282
:10013000116054E033A146F29802C4F20202116049
:100140004DE0DFF8AC552E46DFF8A8351A88B2F539
:10015000806FA8BFA2F5806214444FF000011029FF
:1001600000F00F8034F8100B25F8020B02F110029A
:10017000B2F5806FA8BFA2F5806201F10101FFF71F
:10018000EEBF1A6046F29402C4F20202166026E044
:10019000DFF864552E46DFF85C351A88B2F5806FBB
:1001A000A8BFA2F5806214444FF00001102900F0AE
:1001B0000F8034F8100B25F8020B02F11002B2F593
:1001C000806FA8BFA2F5806201F10101FFF7EEBFC9
:1001D0001A6046F29802C4F202021660FFE770BC91
:1001E000704700BF0000000100020003000400058A
:1001F0000006000700080009000A000B000C000DB3
:10020000000E000FFF0FFF0EFF0DFF0CFF0BFF0A8C
:10021000FF09FF08FF07FF06FF05FF04FF03FF02BA
:10022000FF01FF00000000000000000000000000CF
:1002300000000000FF0FFF0FFF0FFF0FFF0FFF0F6A
:10024000FF0FFF0FFF0FFF0FFF0FFF0FFF0FFF0F3E
:10025000FF0FFF0F00000000000000000000000082
:1002600000000000000F100F200F300F400F500F44
:10027000600F700F800F900FA00FB00FC00FD00F46
:10028000E00FF00FFF0FEF0FDF0FCF0FBF0FAF0F1C
:100290009F0F8F0F7F0F6F0F5F0F4F0F3F0F2F0FAE
:1002A0001F0F0F0FFF0FFF0EFF0DFF0CFF0BFF0ABD
:1002B000FF09FF08FF07FF06FF05FF04FF03FF021A
:1002C000FF01FF0000000001000200030004000520
:1002D0000006000700080009000A000B000C000DD2
:1002E000000E000F00001000200030004000500001
:1002F0006000700080009000A000B000C000D0003E
:10030000E000F00000011001200130014001500127
:100310006001700180019001A001B001C001D00115
:10032000E001F001000210022002300240025002FF
:100330006002700280029002A002B002C002D002ED
:10034000E002F002000310032003300340035003D7
:100350006003700380039003A003B003C003D003C5
:10036000E003F003000410042004300440045004AF
:100370006004700480049004A004B004C004D0049D
:10038000E004F00400051005200530054005500587
:100390006005700580059005A005B005C005D00575
:1003A000E005F0050006100620063006400650065F
:1003B0006006700680069006A006B006C006D0064D
:1003C000E006F00600071007200730074007500737
:1003D0006007700780079007A007B007C007D00725
:1003E000E007F0070008100820083008400850080F
:1003F0006008700880089008A008B008C008D008FD
:10040000E008F008000910092009300940095009E6
:100410006009700980099009A009B009C009D009D4
:10042000E009F009000A100A200A300A400A500ABE
:10043000600A700A800A900AA00AB00AC00AD00AAC
:10044000E00AF00A000B100B200B300B400B500B96
:10045000600B700B800B900BA00BB00BC00BD00B84
:10046000E00BF00B000C100C200C300C400C500C6E
:10047000600C700C800C900CA00CB00CC00CD00C5C
:10048000E00CF00C000D100D200D300D400D500D46
:10049000600D700D800D900DA00DB00DC00DD00D34
:1004A000E00DF00D000E100E200E300E400E500E1E
:1004B000600E700E800E900EA00EB00EC00ED00E0C
:1004C000E00EF00E000F100F200F300F400F500FF6
:1004D000600F700F800F900FA00FB00FC00FD00FE4
:1004E000E00FF00FFF0FEF0FDF0FCF0FBF0FAF0FBA
:1004F0009F0F8F0F7F0F6F0F5F0F4F0F3F0F2F0F4C
:100500001F0F0F0FFF0EEF0EDF0ECF0EBF0EAF0E41
:100510009F0E8F0E7F0E6F0E5F0E4F0E3F0E2F0E33
:100520001F0E0F0EFF0DEF0DDF0DCF0DBF0DAF0D29
:100530009F0D8F0D7F0D6F0D5F0D4F0D3F0D2F0D1B
:100540001F0D0F0DFF0CEF0CDF0CCF0CBF0CAF0C11
:100550009F0C8F0C7F0C6F0C5F0C4F0C3F0C2F0C03
:100560001F0C0F0CFF0BEF0BDF0BCF0BBF0BAF0BF9
:100570009F0B8F0B7F0B6F0B5F0B4F0B3F0B2F0BEB
:100580001F0B0F0BFF0AEF0ADF0ACF0ABF0AAF0AE1
:100590009F0A8F0A7F0A6F0A5F0A4F0A3F0A2F0AD3
:1005A0001F0A0F0AFF09EF09DF09CF09BF09AF09C9
:1005B0009F098F097F096F095F094F093F092F09BB
:1005C0001F090F09FF08EF08DF08CF08BF08AF08B1
:1005D0009F088F087F086F085F084F083F082F08A3
:1005E0001F080F08FF07EF07DF07CF07BF07AF0799
:1005F0009F078F077F076F075F074F073F072F078B
:100600001F070F07FF06EF06DF06CF06BF06AF0680
:100610009F068F067F066F065F064F063F062F0672
:100620001F060F06FF05EF05DF05CF05BF05AF0568
:100630009F058F057F056F055F054F053F052F055A
:100640001F050F05FF04EF04DF04CF04BF04AF0450
:100650009F048F047F046F045F044F043F042F0442
:100660001F040F04FF03EF03DF03CF03BF03AF0338
:100670009F038F037F036F035F034F033F032F032A
:100680001F030F03FF02EF02DF02CF02BF02AF0220
:100690009F028F027F026F025F024F023F022F0212
:1006A0001F020F02FF01EF01DF01CF01BF01AF0108
:1006B0009F018F017F016F015F014F013F012F01FA
:1006C0001F010F01FF00EF00DF00CF00BF00AF00F0
:1006D0009F008F007F006F005F004F003F002F00E2
:1006E0001F000F00C4020020C0020020BC02002036
:1006F00070000020700200207001002040F2000213
:10070000C4F20202116821F00C011160116841F07D
:1007100004011160516821F002015160916821F0DB
:100720000C019160916841F008019160D16821F05D
:100730000C01D160D16841F00401D16040F2004267
:10074000C4F20202116821F003011160116841F046
:1007500001011160516821F001015160916821F09F
:1007600003019160916841F002019160D16821F02C
:100770000301D160D16841F00101D16040F2004233
:10078000C4F20202116821F00C011160116841F0FD
:1007900004011160516821F002015160916821F05B
:1007A0000C019160916841F008019160D16821F0DD
:1007B0000C01D160D16841F00401D16040F20042E7
:1007C000C4F20202116821F440611160116841F421
:1007D00080611160516821F020015160916821F41D
:1007E00040619160916841F400619160D16821F4A9
:1007F0004061D160D16841F48061D16040F2004233
:10080000C4F20202116821F440011160116841F440
:1008100080011160516821F400615160916821F4F8
:1008200040019160916841F400019160D16821F428
:100830004001D160D16841F48001D16040F60002EE
:10084000C4F20202116821F030011160116841F018
:1008500010011160516821F004015160916821F08C
:1008600030019160916841F020019160D16821F0E0
:100870003001D160D16841F01001D16040F6000232
:10088000C4F20202116821F440711160116841F450
:1008900080711160516821F010015160916821F45C
:1008A00040719160916841F400719160D16821F4C8
:1008B0004071D160D16841F48071D16040F600028E
:1008C000C4F20202116821F440611160116841F420
:1008D00080611160516821F020015160916821F41C
:1008E00040619160916841F400619160D16821F4A8
:1008F0004061D160D16841F48061D16040F600422E
:10090000C4F20202116821F030011160116841F057
:1009100010011160516821F004015160916821F0CB
:1009200030019160916841F020019160D16821F01F
:100930003001D160D16841F01001D16040F6000271
:10094000C4F20202116821F440011160116841F4FF
:1009500080011160516821F400615160916821F4B7
:1009600040019160916841F400019160D16821F4E7
:100970004001D160D16841F48001D16040F60002AD
:10098000C4F20202116821F00C011160116841F0FB
:1009900004011160516821F002015160916821F059
:1009A0000C019160916841F008019160D16821F0DB
:1009B0000C01D160D16841F00401D16040F20042E5
:1009C000C4F20202116821F440711160116841F40F
:1009D00080711160516821F010015160916821F41B
:1009E00040719160916841F400719160D16821F487
:1009F0004071D160D16841F48071D16040F2000251
:100A0000C4F20202116821F040411160916821F0A6
:100A100040419160916841F000419160D16821F0BE
:100A20004041D160D16841F08041D16040F6000280
:100A3000C4F20202116821F440311160916821F47E
:100A400040319160916841F400319160D16821F4A6
:100A50004031D160D16841F48031D160704702B437
:100A600040F20042C4F202024FF01001916140F6E0
:100A70000002C4F202024FF002019161DFE810F0BF
:100A800010005800A000E80030017801C001080201
:100A900050029802E00228037003B80300044804DF
:100AA00040F60002C4F202024FF40011916140F2DC
:100AB0000042C4F202024FF40031916140F20002A0
:100AC000C4F202024FF40031916140F20042C4F2DC
:100AD00002024FF40011916140F20042C4F202029E
:100AE0004FF00061916140F60002C4F202024FF43F
:100AF0008021916140F60002C4F202024FF0100121
:100B0000916140F20042C4F202024FF00101916192
:100B100040F60042C4F202024FF48021916140F697
:100B20000042C4F202024FF00401916100F038BCAF
:100B300040F60002C4F202024FF02001916140F23F
:100B40000042C4F202024FF40031916140F200020F
:100B5000C4F202024FF40031916140F20042C4F24B
:100B600002024FF02001916140F20042C4F2020201
:100B70004FF40061916140F60002C4F202024FF0AE
:100B80000401916140F60002C4F202024FF010012C
:100B9000916140F20042C4F202024FF00101916102
:100BA00040F60042C4F202024FF48021916140F607
:100BB0000042C4F202024FF00401916100F0F0BB68
:100BC00040F60002C4F202024FF40011916140F2BB
:100BD0000042C4F202024FF40031916140F200027F
:100BE000C4F202024FF00201916140F20042C4F2ED
:100BF00002024FF40011916140F20042C4F202027D
:100C00004FF00061916140F60002C4F202024FF021
:100C10000401916140F60002C4F202024FF4801117
:100C2000916140F20042C4F202024FF00101916171
:100C300040F60042C4F202024FF48021916140F676
:100C40000042C4F202024FF00401916100F0A8BB1F
:100C500040F60002C4F202024FF40011916140F22A
:100C60000042C4F202024FF40031916140F20002EE
:100C7000C4F202024FF40031916140F20042C4F22A
:100C800002024FF40011916140F20042C4F20202EC
:100C90004FF40061916140F60002C4F202024FF08D
:100CA0000401916140F60002C4F202024FF4801187
:100CB000916140F20042C4F202024FF001019161E1
:100CC00040F60042C4F202024FF48021916140F6E6
:100CD0000042C4F202024FF00401916100F060BBD7
:100CE00040F60002C4F202024FF02001916140F28E
:100CF0000042C4F202024FF40031916140F200025E
:100D0000C4F202024FF40031916140F20042C4F299
:100D100002024FF02001916140F20042C4F202024F
:100D20004FF40061916140F60002C4F202024FF4F8
:100D30008021916140F60002C4F202024FF480115A
:100D4000916140F20042C4F202024FF00101916150
:100D500040F60042C4F202024FF48021916140F655
:100D60000042C4F202024FF00401916100F018BB8E
:100D700040F60002C4F202024FF40011916140F209
:100D80000042C4F202024FF00201916140F20002FF
:100D9000C4F202024FF40031916140F20042C4F209
:100DA00002024FF40011916140F20042C4F20202CB
:100DB0004FF40061916140F60002C4F202024FF468
:100DC0008021916140F60002C4F202024FF48011CA
:100DD000916140F20042C4F202024FF001019161C0
:100DE00040F60042C4F202024FF48021916140F6C5
:100DF0000042C4F202024FF00401916100F0D0BA47
:100E000040F60002C4F202024FF40011916140F278
:100E10000042C4F202024FF00201916140F200026E
:100E2000C4F202024FF40031916140F20042C4F278
:100E300002024FF40011916140F20042C4F202023A
:100E40004FF00061916140F60002C4F202024FF4DB
:100E50008021916140F60002C4F202024FF4801139
:100E6000916140F20042C4F202024FF0010191612F
:100E700040F60042C4F202024FF48021916140F634
:100E80000042C4F202024FF00401916100F088BAFE
:100E900040F60002C4F202024FF40011916140F2E8
:100EA0000042C4F202024FF40031916140F20002AC
:100EB000C4F202024FF40031916140F20042C4F2E8
:100EC00002024FF02001916140F20042C4F202029E
:100ED0004FF40061916140F60002C4F202024FF04B
:100EE0000401916140F60002C4F202024FF01001C9
:100EF000916140F20042C4F202024FF0010191619F
:100F000040F60042C4F202024FF48021916140F6A3
:100F10000042C4F202024FF00401916100F040BAB5
:100F200040F60002C4F202024FF40011916140F257
:100F30000042C4F202024FF40031916140F200021B
:100F4000C4F202024FF40031916140F20042C4F257
:100F500002024FF40011916140F20042C4F2020219
:100F60004FF00061916140F60002C4F202024FF4BA
:100F70008021916140F60002C4F202024FF4801118
:100F8000916140F20042C4F202024FF0010191610E
:100F900040F60042C4F202024FF48021916140F613
:100FA0000042C4F202024FF00401916100F0F8B96E
:100FB00040F60002C4F202024FF40011916140F2C7
:100FC0000042C4F202024FF40031916140F200028B
:100FD000C4F202024FF40031916140F20042C4F2C7
:100FE00002024FF02001916140F20042C4F202027D
:100FF0004FF40061916140F60002C4F202024FF426
:101000008021916140F60002C4F202024FF4801187
:10101000916140F20042C4F202024FF0010191617D
:1010200040F60042C4F202024FF48021916140F682
:101030000042C4F202024FF00401916100F0B0B925
:1010400040F60002C4F202024FF40011916140F236
:101050000042C4F202024FF40031916140F20002FA
:10106000C4F202024FF40031916140F20042C4F236
:1010700002024FF02001916140F20042C4F20202EC
:101080004FF00061916140F60002C4F202024FF499
:101090008021916140F60002C4F202024FF48011F7
:1010A000916140F20042C4F202024FF001019161ED
:1010B00040F60042C4F202024FF48021916140F6F2
:1010C0000042C4F202024FF00401916100F068B9DD
:1010D00040F60002C4F202024FF02001916140F29A
:1010E0000042C4F202024FF00201916140F200029C
:1010F000C4F202024FF40031916140F20042C4F2A6
:1011000002024FF40011916140F20042C4F2020267
:101110004FF00061916140F60002C4F202024FF408
:101120008021916140F60002C4F202024FF4801166
:10113000916140F20042C4F202024FF0010191615C
:1011400040F60042C4F202024FF48021916140F661
:101150000042C4F202024FF00401916100F020B994
:1011600040F60002C4F202024FF40011916140F215
:101170000042C4F202024FF00201916140F200020B
:10118000C4F202024FF00201916140F20042C4F247
:1011900002024FF40011916140F20042C4F20202D7
:1011A0004FF00061916140F60002C4F202024FF478
:1011B0008021916140F60002C4F202024FF010015A
:1011C000916140F20042C4F202024FF001019161CC
:1011D00040F60042C4F202024FF48021916140F6D1
:1011E0000042C4F202024FF00401916100F0D8B84D
:1011F00040F60002C4F202024FF02001916140F279
:101200000042C4F202024FF40031916140F2000248
:10121000C4F202024FF40031916140F20042C4F284
:1012200002024FF40011916140F20042C4F2020246
:101230004FF00061916140F60002C4F202024FF0EB
:101240000401916140F60002C4F202024FF48011E1
:10125000916140F20042C4F202024FF0010191613B
:1012600040F60042C4F202024FF48021916140F640
:101270000042C4F202024FF00401916100F090B804
:1012800040F60002C4F202024FF40011916140F2F4
:101290000042C4F202024FF00201916140F20002EA
:1012A000C4F202024FF00201916140F20042C4F226
:1012B00002024FF40011916140F20042C4F20202B6
:1012C0004FF00061916140F60002C4F202024FF457
:1012D0008021916140F60002C4F202024FF48011B5
:1012E000916140F20042C4F202024FF001019161AB
:1012F00040F60042C4F202024FF48021916140F6B0
:101300000042C4F202024FF00401916100F048B8BB
:1013100040F60002C4F202024FF40011916140F263
:101320000042C4F202024FF00201916140F2000259
:10133000C4F202024FF00201916140F20042C4F295
:1013400002024FF02001916140F20042C4F2020219
:101350004FF00061916140F60002C4F202024FF4C6
:101360008021916140F60002C4F202024FF4801124
:10137000916140F20042C4F202024FF0010191611A
:1013800040F60042C4F202024FF48021916140F61F
:101390000042C4F202024FF00401916100F000B873
:1013A00002BCDFE811F005004D009500DD002501CD
:1013B00040F20042C4F202024FF02001916140F27B
:1013C0000042C4F202024FF40061916140F2004217
:1013D000C4F202024FF00101916140F20042C4F2F6
:1013E00002024FF00201916140F60002C4F20202D3
:1013F0004FF01001916140F20002C4F202024FF07E
:101400000201916140F60002C4F202024FF00401B1
:10141000916140F60002C4F202024FF400119161A2
:1014200040F60002C4F202024FF00061916140F602
:101430000002C4F202024FF40061916100F020B991
:1014400040F20042C4F202024FF02001916140F2EA
:101450000042C4F202024FF40061916140F2004286
:10146000C4F202024FF00101916140F20042C4F265
:1014700002024FF00201916140F60002C4F2020242
:101480004FF01001916140F20002C4F202024FF0ED
:101490000201916140F60002C4F202024FF4802181
:1014A000916140F60002C4F202024FF02001916106
:1014B00040F60002C4F202024FF00061916140F672
:1014C0000002C4F202024FF40061916100F0D8B84A
:1014D00040F20042C4F202024FF02001916140F25A
:1014E0000042C4F202024FF40061916140F20042F6
:1014F000C4F202024FF00101916140F20042C4F2D5
:1015000002024FF00201916140F60002C4F20202B1
:101510004FF01001916140F20002C4F202024FF458
:101520000031916140F60002C4F202024FF0040162
:10153000916140F60002C4F202024FF02001916175
:1015400040F60002C4F202024FF00061916140F6E1
:101550000002C4F202024FF40061916100F090B801
:1015600040F20042C4F202024FF02001916140F2C9
:101570000042C4F202024FF40061916140F2004265
:10158000C4F202024FF00101916140F20042C4F244
:1015900002024FF00201916140F60002C4F2020221
:1015A0004FF48011916140F20002C4F202024FF048
:1015B0000201916140F60002C4F202024FF0040100
:1015C000916140F60002C4F202024FF020019161E5
:1015D00040F60002C4F202024FF00061916140F651
:1015E0000002C4F202024FF40061916100F048B8B9
:1015F00040F20042C4F202024FF02001916140F239
:101600000042C4F202024FF40061916140F20042D4
:10161000C4F202024FF00101916140F20042C4F2B3
:1016200002024FF40031916140F60002C4F202025E
:101630004FF01001916140F20002C4F202024FF03B
:101640000201916140F60002C4F202024FF004016F
:10165000916140F60002C4F202024FF02001916154
:1016600040F60002C4F202024FF00061916140F6C0
:101670000002C4F202024FF40061916100F000B870
:1016800040F60002C4F202024FF40031916140F2D0
:101690000042C4F202024FF480119161704740F69B
:1016A0000002C4F202024FF00201916140F20042D6
:1016B000C4F202024FF010019161DFE810F00D005A
:1016C0007300D9003F01A5010B027102D7023D034F
:1016D000A30309046F04D50440F60002C4F2020219
:1016E0004FF02001916140F20042C4F202024FF03B
:1016F0000201916140F20002C4F202024FF00201C5
:10170000916140F20042C4F202024FF40011916173
:1017100040F20042C4F202024FF40061916140F6CF
:101720000002C4F202024FF00401916140F600028F
:10173000C4F202024FF01001916140F20042C4F283
:1017400002024FF00101916140F60042C4F2020230
:101750004FF48021916140F60042C4F202024FF042
:101760000401916140F60002C4F202024FF400311C
:10177000916140F20042C4F202024FF40011916103
:1017800040F20002C4F20202106910F400404FEA75
:10179000D03040F20042C4F202024FF020019161C9
:1017A00000F0C8BC40F60002C4F202024FF0200173
:1017B000916140F20042C4F202024FF002019161D5
:1017C00040F20002C4F202024FF00201916140F2C5
:1017D0000042C4F202024FF40011916140F2004253
:1017E000C4F202024FF40061916140F60002C4F2BB
:1017F00002024FF00401916140F60002C4F20202BD
:101800004FF01001916140F20042C4F202024FF029
:101810000101916140F60042C4F202024FF48021BE
:10182000916140F60042C4F202024FF0040191615E
:1018300040F60002C4F202024FF40031916140F21E
:101840000042C4F202024FF40011916140F600021E
:10185000C4F20202106910F480704FEA102040F2C6
:101860000042C4F202024FF02001916100F062BC1C
:1018700040F60002C4F202024FF02001916140F2F2
:101880000042C4F202024FF00201916140F20002F4
:10189000C4F202024FF00201916140F20042C4F230
:1018A00002024FF02001916140F20042C4F20202B4
:1018B0004FF00061916140F60002C4F202024FF065
:1018C0000401916140F60002C4F202024FF01001DF
:1018D000916140F20042C4F202024FF001019161B5
:1018E00040F60042C4F202024FF48021916140F6BA
:1018F0000042C4F202024FF00401916140F600027E
:10190000C4F202024FF40031916140F20042C4F28D
:1019100002024FF00061916140F20002C4F2020243
:10192000106910F400404FEAD03040F20042C4F297
:1019300002024FF40061916100F0FCBB40F600022E
:10194000C4F202024FF02001916140F20042C4F261
:1019500002024FF00201916140F20002C4F2020261
:101960004FF00201916140F20042C4F202024FF0D6
:101970002001916140F20042C4F202024FF0006186
:10198000916140F60002C4F202024FF0040191613D
:1019900040F60002C4F202024FF01001916140F2E1
:1019A0000042C4F202024FF00101916140F6004290
:1019B000C4F202024FF48021916140F60042C4F269
:1019C00002024FF00401916140F60002C4F20202EB
:1019D0004FF40031916140F20042C4F202024FF034
:1019E0000061916140F60002C4F20202106910F435
:1019F00080704FEA102040F20042C4F202024FF41D
:101A00000061916100F096BB40F60002C4F2020250
:101A10004FF02001916140F20042C4F202024FF007
:101A20000201916140F20002C4F202024FF0020191
:101A3000916140F20042C4F202024FF02001916134
:101A400040F20042C4F202024FF40061916140F69C
:101A50000002C4F202024FF00401916140F600025C
:101A6000C4F202024FF01001916140F20042C4F250
:101A700002024FF48031916140F60042C4F202024A
:101A80004FF48021916140F60042C4F202024FF00F
:101A90000401916140F60002C4F202024FF40031E9
:101AA000916140F20042C4F202024FF48031916130
:101AB00040F20002C4F20202106910F400404FEA42
:101AC000D03040F20042C4F202024FF001019161B5
:101AD00000F030BB40F60002C4F202024FF02001D9
:101AE000916140F20042C4F202024FF002019161A2
:101AF00040F20002C4F202024FF00201916140F292
:101B00000042C4F202024FF02001916140F2004213
:101B1000C4F202024FF40061916140F60002C4F287
:101B200002024FF00401916140F60002C4F2020289
:101B30004FF01001916140F20042C4F202024FF4F2
:101B40008031916140F60042C4F202024FF48021DC
:101B5000916140F60042C4F202024FF0040191612B
:101B600040F60002C4F202024FF40031916140F2EB
:101B70000042C4F202024FF48031916140F600024B
:101B8000C4F20202106910F480704FEA102040F293
:101B90000042C4F202024FF00101916100F0CABAA2
:101BA00040F60002C4F202024FF02001916140F2BF
:101BB0000042C4F202024FF40031916140F200028F
:101BC000C4F202024FF00201916140F20042C4F2FD
:101BD00002024FF02001916140F20042C4F2020281
:101BE0004FF40061916140F60002C4F202024FF02E
:101BF0000401916140F60002C4F202024FF01001AC
:101C0000916140F20042C4F202024FF00101916181
:101C100040F60042C4F202024FF48021916140F686
:101C20000042C4F202024FF00401916140F600024A
:101C3000C4F202024FF40031916140F20042C4F25A
:101C400002024FF40031916140F20002C4F202023C
:101C5000106910F400404FEAD03040F20042C4F264
:101C600002024FF00201916100F064BA40F60002F6
:101C7000C4F202024FF02001916140F20042C4F22E
:101C800002024FF40031916140F20002C4F20202FC
:101C90004FF00201916140F20042C4F202024FF0A3
:101CA0002001916140F20042C4F202024FF400614F
:101CB000916140F60002C4F202024FF0040191610A
:101CC00040F60002C4F202024FF01001916140F2AE
:101CD0000042C4F202024FF00101916140F600425D
:101CE000C4F202024FF48021916140F60042C4F236
:101CF00002024FF00401916140F60002C4F20202B8
:101D00004FF40031916140F20042C4F202024FF4FC
:101D10000031916140F60002C4F20202106910F431
:101D200080704FEA102040F20042C4F202024FF0ED
:101D30000201916100F0FEB940F60002C4F2020215
:101D40004FF02001916140F20042C4F202024FF0D4
:101D50000201916140F20002C4F202024FF002015E
:101D6000916140F20042C4F202024FF02001916101
:101D700040F20042C4F202024FF40061916140F669
:101D80000002C4F202024FF00401916140F6000229
:101D9000C4F202024FF48011916140F20042C4F299
:101DA00002024FF00101916140F60042C4F20202CA
:101DB0004FF48021916140F60042C4F202024FF0DC
:101DC0000401916140F60002C4F202024FF40031B6
:101DD000916140F60002C4F202024FF48011916159
:101DE00040F20002C4F20202106910F400404FEA0F
:101DF000D03040F60002C4F202024FF010019161AF
:101E000000F098B940F60002C4F202024FF020013F
:101E1000916140F20042C4F202024FF0020191616E
:101E200040F20002C4F202024FF00201916140F25E
:101E30000042C4F202024FF02001916140F20042E0
:101E4000C4F202024FF40061916140F60002C4F254
:101E500002024FF00401916140F60002C4F2020256
:101E60004FF48011916140F20042C4F202024FF03F
:101E70000101916140F60042C4F202024FF4802158
:101E8000916140F60042C4F202024FF004019161F8
:101E900040F60002C4F202024FF40031916140F6B4
:101EA0000002C4F202024FF48011916140F6000278
:101EB000C4F20202106910F480704FEA102040F65C
:101EC0000002C4F202024FF01001916100F032B939
:101ED00040F60002C4F202024FF40011916140F298
:101EE0000042C4F202024FF00201916140F200028E
:101EF000C4F202024FF00201916140F20042C4F2CA
:101F000002024FF02001916140F20042C4F202024D
:101F10004FF40061916140F60002C4F202024FF0FA
:101F20000401916140F60002C4F202024FF0100178
:101F3000916140F20042C4F202024FF0010191614E
:101F400040F60042C4F202024FF48021916140F653
:101F50000042C4F202024FF00401916140F6000217
:101F6000C4F202024FF40031916140F60002C4F263
:101F700002024FF40011916140F20002C4F2020229
:101F8000106910F400404FEAD03040F60002C4F26D
:101F900002024FF02001916100F0CCB840F600023F
:101FA000C4F202024FF40011916140F20042C4F207
:101FB00002024FF00201916140F20002C4F20202FB
:101FC0004FF00201916140F20042C4F202024FF070
:101FD0002001916140F20042C4F202024FF400611C
:101FE000916140F60002C4F202024FF004019161D7
:101FF00040F60002C4F202024FF01001916140F27B
:102000000042C4F202024FF00101916140F6004229
:10201000C4F202024FF48021916140F60042C4F202
:1020200002024FF00401916140F60002C4F2020284
:102030004FF40031916140F60002C4F202024FF405
:102040000011916140F60002C4F20202106910F41E
:1020500080704FEA102040F60002C4F202024FF0F6
:102060002001916100F066B840F60002C4F202025D
:102070004FF02001916140F20042C4F202024FF0A1
:102080000201916140F20002C4F202024FF40031F9
:10209000916140F20042C4F202024FF020019161CE
:1020A00040F20042C4F202024FF40061916140F636
:1020B0000002C4F202024FF00401916140F60002F6
:1020C000C4F202024FF01001916140F20042C4F2EA
:1020D00002024FF00101916140F60042C4F2020297
:1020E0004FF48021916140F60042C4F202024FF0A9
:1020F0000401916140F60002C4F202024FF4003183
:10210000916140F20002C4F202024FF40031916189
:1021100040F20002C4F20202106910F400404FEADB
:10212000D03040F20002C4F202024FF0020191618D
:1021300000F000B80FB500F004F8BDE80F4000F063
:1021400083B87648764B198850F8212001F10101B7
:102150000429ACBF40F20000084618601046FEF7A4
:102160007EBC704B53F82020DFE802F0030C1B2AE2
:102170003342002940F06D8040F2010243F82020F4
:1021800000F067B8002940F0068040F2020243F8F0
:10219000202000F05EB840F2000243F8202000F05A
:1021A00058B8002940F0068040F2030243F820208E
:1021B00000F02DB840F2000243F8202000F049B8AA
:1021C000002900F0468040F2040243F8202000F08D
:1021D00040B8002940F0068040F2030243F8202076
:1021E00000F037B840F2050243F8202000F031B883
:1021F000002940F0068040F2030243F8202000F05E
:1022000028B840F2000243F8202000F000B881F026
:10221000010140F2000242EA010201BC00F10101A9
:1022200001B44FEA410142EA01023F48026000B5B1
:1022300000F0C0F95DF804EB00F00BB800B540F217
:10224000000001B4FFF72BBA014601BC01B4FFF74F
:1022500088BF01BC00F101000D28FFF6F2AF5DF868
:1022600004EB704700B5314A92E803002B4B00287D
:1022700000F006804FF0020243F8221000F004B88C
:102280004FF0000243F822105DF804EB704700B5F0
:10229000264A92E80300214B002800F01F80012904
:1022A00004BF002200F011B8032904BF012200F08E
:1022B0000CB8052904BF022200F007B8072904BFA3
:1022C000032200F002B800F026B853F822100F29BC
:1022D000B8BF013143F8221000F01DB8022904BF35
:1022E000002200F011B8042904BF012200F00CB84C
:1022F000062904BF022200F007B8082904BF032200
:1023000000F002B800F007B853F822100029C8BF47
:10231000013943F822105DF804EB704710000020EB
:102320007802002080020020C8020020CC02002099
:102330001249114A124B5B1A00F0078012F8014B48
:1023400001F8014B013B3FF7F9AF0E490E4B5B1A09
:1023500000F009804FF0000201F8012B013B3FF72C
:10236000FBAFFEF7CBF90DF04BFE4FF000004FF046
:10237000000100F013F8FEE75C26000800000020D2
:102380006C0000206C000020BC020020704700B5EB
:10239000FFF7D7FE5DF804EB7047000080B500AF93
:1023A0004FF0000000F020F84FF0010000F01CF8A2
:1023B0004FF0020000F018F84FF0030000F014F89E
:1023C0004FF0000000F03AF84FF0010000F036F84E
:1023D0004FF0020000F032F84FF0030000F02EF84A
:1023E00000F0C0F8FEE700BF10B542F2FC53C0F6A3
:1023F000000382B00446012153F8200000F0F0F8F9
:1024000042F20C62C0F6000240F20003C2F2000386
:1024100032F8142053F82400009201238DF8043080
:1024200000228DF80730694602238DF806208DF8CA
:10243000053000F011F802B010BD00BF40F20002FC
:1024400042F20C63C2F20002C0F6000352F82020F0
:1024500033F810301383704700222DE9F00713463C
:102460000E6801274FF0030803E001330232102BFE
:102470002BD007FA03F404EA0605A542F5D1D0F8FB
:10248000009091F804C008FA02F4E44304EA090950
:10249000C0F80090D0F800900CFA02FA0CF1FF3C62
:1024A0004AEA0909BCF1010FC0F8009010D9C568CB
:1024B00091F807C02C40C460C5680CFA02F40133DF
:1024C0002C430232102BC460D3D1BDE8F007704713
:1024D000D0F808A091F8059091F806C004EA0A0A1D
:1024E000C0F808A0D0F808A009FA02F949EA0A09D8
:1024F000C0F80890D0F8049029EA050545604568C1
:102500000CFA03FC1FFA8CFC4CEA05054560CEE78B
:1025100010B542F21463C0F6000382B004460121F4
:1025200053F8200000F05CF842F24462C0F600026A
:1025300040F23C03C2F2000332F8142053F82400A6
:10254000009201238DF8043000228DF8073069468F
:1025500002238DF806208DF80530FFF77DFF02B0CD
:1025600010BD00BF08B50020FFF7D2FF0120FFF724
:10257000CFFF0220FFF7CCFF0320FFF7C9FF0420A5
:10258000FFF7C6FF0520FFF7C3FF0620FFF7C0FFD8
:102590000720FFF7BDFF0820FFF7BAFF0920FFF76C
:1025A000B7FF0A20FFF7B4FF0B20BDE80840FFF794
:1025B000AFBF00BF084A1368132B10B408D80468D3
:1025C0000648591C40F823401160002010BC704799
:1025D0004FF0FF30FAE700BFB8020020CC02002025
:1025E0004FF46053C4F202031A6B19B922EA0000D7
:1025F0001863704710431863704700BF080000005D
:102600000800000008000000080000000010002082
:1026100000400080040000000200000001000000F3
:10262000020000000200000004000000040000009E
:10263000020000000400000008000000020000008A
:102640000400000020000200020020000008040036
:0C2650001000010002000400100000084F
:10265C00000C0240000C0240000C0240000C024036
:10266C00010000000100000000000000000000005C
:10267C00000000000000000000000000000000004E
:10268C0000000000000000000000000000080240F4
:10269C00000402400000024000040240000402401A
:1026AC0000080240000802400004024000080240FA
:1026BC00000C024000040240000802400000000030
:1026CC0000000000000000000000000000000000FE
:1026DC0000000000000000000000000000000000EE
:1026EC0000000000000000000000000000000000DE
:1026FC0000000000000000000000000000000000CE
:04000005080023319B
:00000001FF
