:020000040800F2
:10000000380400209D010008F5090008F7090008E0
:10001000F9090008FB090008FD09000800000000BC
:10002000000000000000000000000000FF090008C0
:10003000010A000800000000030A0008070A00087F
:10004000B7010008B7010008B7010008B7010008B0
:10005000B7010008B7010008B7010008B7010008A0
:10006000B7010008B7010008B7010008B701000890
:10007000B7010008B7010008B7010008B701000880
:10008000B7010008B7010008B7010008B701000870
:10009000B7010008B7010008B7010008B701000860
:1000A000B7010008B7010008B7010008B701000850
:1000B000B7010008B7010008B7010008B701000840
:1000C000B7010008B7010008B7010008B701000830
:1000D000B7010008B7010008B7010008B701000820
:1000E000B7010008B7010008B7010008B701000810
:1000F000B7010008B7010008B7010008B701000800
:10010000B7010008B7010008B7010008B7010008EF
:10011000B7010008B7010008B7010008B7010008DF
:10012000B7010008B7010008B7010008B7010008CF
:10013000B7010008B7010008B7010008B7010008BF
:10014000B7010008B7010008B7010008B7010008AF
:10015000B7010008B7010008B7010008B70100089F
:10016000B7010008B7010008B7010008B70100088F
:10017000B7010008B7010008B7010008B70100087F
:10018000B7010008B7010008DFF80CD000F0F4FC5C
:1001900000480047810900083804002006488047CD
:1001A00006480047FEE7FEE7FEE7FEE7FEE7FEE75C
:1001B000FEE7FEE7FEE7FEE7110A000889010008F6
:1001C000F848016841F001010160F64A0021083257
:1001D00011600268F44B1A400260031DF34A1A6072
:1001E000F04BF34A84331A60F04A103A1B1D1A6030
:1001F000026822F480220260EA480C300160181D77
:1002000001607047E7490022891C0A700870704736
:1002100002460020510901290CD002290CD0E149E5
:100220007431096802F01F02012393400B4200D091
:1002300001207047DB49F4E7DA497031F1E730B566
:1002400000244FF4A0453120FFF7E2FF641CAC42CC
:1002500001D00028F7D03120FFF7DAFF002800D0C6
:10026000012030BDCF4A116821F0F80141EAC000F9
:1002700010607047CF4908607047CA49002270314A
:100280000A700A70012802D0042801D105200870E4
:100290007047C9490860704741EA82115A0810B591
:1002A000C64B029C03EB02421143014341EA046046
:1002B000BC49091D086010BDBE4908667047800131
:1002C00040EA0170B749843108607047B9498866CF
:1002D0007047800140EA0160B24940EA027088310B
:1002E00008607047B34908677047B249C8647047EF
:1002F000AC4B08331A68084322F0EC6210431860D4
:100300007047A84B08331A68084322F0784210431C
:1003100018607047A34A0832116821F003010143B5
:10032000116070479F480830006800F00C0070476B
:100330009C4A0832116821F0F001014311607047B6
:10034000984A0832116821F4E05101431160704766
:10035000944A0832116821F4604141EAC0001060FB
:10036000704770B58F4B08331968954C11F00C012C
:1003700004D06610042903D0082903D004601BE0D0
:10038000066019E0874A121D1168C1F38055116893
:1003900001F03F0115B1B6FBF1F101E0B4FBF1F161
:1003A00014681268C4F388146143C2F30142521CFA
:1003B0005200B1FBF2F101601968824A01F0F001CC
:1003C0000909545C0168E14041601C6804F4E05490
:1003D000A40A145D21FA04F484601B6803F46043EA
:1003E0005B0BD25CD140C16070BDC0F30121032919
:1003F00008D16C4B08331968734A21F4F811024094
:100400000A431A60674970310A68C0F30B0002435F
:100410000A60704768494439086070476649403946
:10042000086070476949086070475E4A8C321168FD
:1004300021F440110143116070475A4A8C3211680F
:1004400021F44001014311607047564A8C32116813
:10045000401E21F01F01014311607047514A8C3248
:1004600011686FF0FF0321F4F85103EB00200843FB
:10047000106070474B4A8C32116821F440310143BF
:1004800011607047524908607047464A303200296F
:10049000116801D0014300E0814311607047414A77
:1004A00034320029116801D0014300E0814311601A
:1004B00070473C4A38320029116801D0014300E0FE
:1004C000814311607047374A40320029116801D0DA
:1004D000014300E0814311607047324A44320029F1
:1004E000116801D0014300E08143116070472D4A3B
:1004F00010320029116801D0014300E081431160EE
:100500007047284A14320029116801D0014300E0E5
:10051000814311607047234A18320029116801D0C5
:10052000014300E08143116070471E4A20320029D8
:10053000116801D0014300E0814311607047194AFE
:1005400024320029116801D0014300E08143116089
:100550007047144A50320029116801D0014300E06D
:100560008143116070470F4A54320029116801D04D
:10057000014300E08143116070470A4A5832002964
:10058000116801D0014300E0814311607047054AC2
:1005900060320029116801D0014300E081431160FD
:1005A0007047000000380240FFFFF6EA10300024D8
:1005B0000030002000004742800E47420000FFFF4D
:1005C0000024F40000000020FFFCFF0F5C01474204
:1005D000E0114742194A0029116801D0014300E0A7
:1005E00081431160DCE715490C310128086803D00C
:1005F00020F008000860D3E740F00800FAE70F4A4F
:10060000573A0029117801D0014300E0814311706D
:10061000C6E70A481030016841F080710160BFE709
:100620000146064A0020583A12680A42B8D0012012
:10063000B6E7024956390870B2E700006438024054
:10064000754910B5884206D101210846FFF74FFFD2
:10065000002101205BE07149884206D1012102207E
:10066000FFF745FF0021022051E06D49884206D185
:1006700001210420FFF73BFF0021042047E06949E6
:10068000884206D101210820FFF731FF0021082010
:100690003DE06549884206D101211020FFF727FF80
:1006A0000021102033E06149884206D10121202039
:1006B000FFF71DFF0021202029E05D49884206D177
:1006C00001214020FFF713FF002140201FE059497E
:1006D000884206D101218020FFF709FF00218020F8
:1006E00015E05549884202D1012184150AE0534999
:1006F000884202D10121441504E0514988420AD1BF
:10070000012104152046FFF7F2FE00212046BDE836
:100710001040FFF7ECBE10BDF0B5002201274FF0EE
:10072000030C0B6807FA02F52B40AB422CD106688C
:1007300053000CFA03F4A64306600E79D0F800E0EB
:100740009E4046EA0E0606600E79012E01D0022E6A
:1007500012D18668A64386604E79D0F808E09E40A4
:1007600046EA0E0686604668AE43466045688E7966
:100770009640B6B235434560C568A543C560CC799F
:100780009C40C3681C43C460521C102AC9D3F0BDEE
:100790004FF6FF7101600021017141718171C171DA
:1007A000704741F48032C261C161C261C169C069F0
:1007B00070470246002012690A4200D001207047AB
:1007C000006980B270470246002052690A4200D098
:1007D00001207047406980B27047018370474183B0
:1007E00070470AB101837047418370474161704788
:1007F00042694A40426170474B07DB0E9A40C90884
:1008000010B500EB8100016A0F249C40A1430162F6
:10081000016A1143016210BD000002400004024061
:1008200000080240000C0240001002400014024088
:1008300000180240001C0240002002400024024038
:1008400000280240234810B54168491C4160816876
:1008500011B18168491E8160AFF3008010BD10B5F1
:100860001C4C2078002820D10120FFF7CBFCFFF79B
:10087000E6FC0028FBD0184801684FF47A70B1FB01
:10088000F0F0401EB0F1807F10D24FF0E0225061B6
:10089000124BF02018700020906107201061104862
:1008A000B1FBF0F0E0600120207010BDFEE70948C8
:1008B0000078002805D04FF0E020016941F00201E6
:1008C000016170474FF0E020016921F002010161F0
:1008D00070470000100000202400002023ED00E0FD
:1008E000C0C62D001CB501210820FFF7CEFD4FF436
:1008F0007040009000208DF8060001218DF8041052
:100900008DF8070003208DF8050069461948FFF7A8
:1009100003FF1CBD1CB501210846FFF7B6FD0120F1
:10092000009000208DF806008DF804008DF8070077
:1009300003208DF8050069460F48FFF7EDFE1CBD4A
:100940000D480069C00702D00C48017809B10020A9
:100950007047012101700846704707480069C007C9
:1009600006D10648017819B10021017001207047B5
:1009700000207047000C02400000024020000020D0
:1009800000F046F8FFF76BFFFFF7ACFF17494FF495
:10099000704008804FF4FA6000F021F8134C4FF4D7
:1009A000FA75241F206880F480502060284600F0EB
:1009B00016F8206880F480402060284600F00FF888
:1009C000206880F400502060284600F008F8206875
:1009D00080F400402060284600F001F8E2E7044976
:1009E0000A680B689B1A8342FBD37047180C0240BD
:1009F000140000207047FEE7FEE7FEE7FEE77047C1
:100A000070477047704710B5FFF71CFF10BD00001E
:100A1000504810B5016841F4700101604E4801680A
:100A200041F0010101604C4A002108321160026866
:100A30004A4B1A400260031D494A1A60026822F4B8
:100A40008022026044480C30016000F03CF84149CB
:100A50004FF000608039086010BD70B53E4D08351C
:100A60002868404B404910F00C0004D05E10042868
:100A700003D0082803D00B601BE00E6019E0364A53
:100A8000121D1068C0F38054106800F03F0014B1CC
:100A9000B6FBF0F001E0B3FBF0F013681268C3F3AB
:100AA00088135843C2F30142521C5200B0FBF2F0CB
:100AB000086028682C4AC0F30310121D105C0A68F5
:100AC000C2400A6070BD244A0020116841F48031A0
:100AD00011604FF4A043116800F1010011F4003FD0
:100AE00001D19842F7D11068800331D51A484030BF
:100AF000016841F0805101601C48016841F44041A7
:100B000001601548083001680160016841F4004146
:100B10000160016841F4A0510160031F144919608C
:100B2000116841F08071116011688901FCD5114A8A
:100B300040F205711160016821F003010160016854
:100B400041F0020101600168C1F381010229FAD17B
:100B50007047000088ED00E000380240FFFFF6FE1D
:100B6000103000240024F400240000200070004015
:100B700008544007003C0240064C074D06E0E06880
:100B800040F0010394E8070098471034AC42F6D3D4
:100B9000FFF7FEFABC0B0008DC0B000802E008C8F7
:100BA000121F08C1002AFAD170477047002001E0E7
:100BB00001C1121F002AFBD170470000DC0B0008A6
:100BC00000000020380000009C0B0008140C0008F6
:100BD0003800002000040000AC0B000800000000FA
:100BE00001020304010203040607080900000000D3
:100BF00000000000000000000000000000000000F5
:100C0000007A030A00000000000000000102030453
:040C100006070809C2
:040000050800018965
:00000001FF
