:020000040800F2
:10000000000002208901000805020008070200081C
:1000100009020008130200081D0200080000000089
:100020000000000000000000000000001F020008A7
:100030002102000800000000230200082702000837
:1000400025020008250200082502000825020008F4
:1000500025020008250200082502000825020008E4
:1000600025020008250200082502000825020008D4
:1000700025020008250200082502000825020008C4
:1000800025020008250200082502000825020008B4
:1000900025020008250200082502000825020008A4
:1000A0002502000825020008250200082502000894
:1000B000250200082F02000825020008250200087A
:1000C0002502000825020008250200082502000874
:1000D0002502000825020008250200082502000864
:1000E0002502000825020008250200082502000854
:1000F0002502000825020008250200082502000844
:100100002502000825020008250200082502000833
:100110002502000825020008250200082502000823
:100120002502000825020008250200082502000813
:100130002502000825020008250200082502000803
:1001400025020008250200082502000825020008F3
:1001500025020008250200082502000825020008E3
:1001600025020008250200082502000825020008D3
:1001700025020008250200082502000800000000F2
:1001800025020008250200081A49194A1A4B5B1A71
:1001900000F0078012F8014B01F8014B013B3FF7DB
:1001A000F9AF1649164B5B1A00F007804FF00002BA
:1001B00001F8012B013B3FF7FBAF00F043F84EF68F
:1001C0002452CEF20002116841F4003111604EF663
:1001D0002452CEF20002116841F4803111600FF018
:1001E0000FFF4FF000004FF0000102F09DF9FEE715
:1001F000502C000800000020540000205400002073
:10020000D4020020FEE7FEE7186800F10100186044
:100210007047186800F1010018607047FEE7FEE7BC
:10022000FEE7FEE7704700B55DF804EB704700B5E8
:1002300002F0C6FC01F0A6FD01F01EFE5DF804EB25
:100240007047000040F20002C4F20202116821F07F
:100250000C011160116841F004011160516821F036
:1002600002015160916821F00C019160916841F0A8
:1002700008019160D16821F00C01D160D16841F092
:100280000401D16040F20042C4F20202116821F080
:1002900003011160116841F001011160516821F002
:1002A00001015160916821F003019160916841F072
:1002B00002019160D16821F00301D160D16841F061
:1002C0000101D16040F20042C4F20202116821F043
:1002D0000C011160116841F004011160516821F0B6
:1002E00002015160916821F00C019160916841F028
:1002F00008019160D16821F00C01D160D16841F012
:100300000401D16040F20042C4F20202116821F4FB
:1003100040611160116841F480611160516821F001
:1003200020015160916821F440619160916841F42D
:1003300000619160D16821F44061D160D16841F4DD
:100340008061D16040F20042C4F20202116821F4DF
:1003500040011160116841F480011160516821F47D
:1003600000615160916821F440019160916841F40D
:1003700000019160D16821F44001D160D16841F45D
:100380008001D16040F60002C4F20202116821F03F
:1003900030011160116841F010011160516821F0C5
:1003A00004015160916821F030019160916841F041
:1003B00020019160D16821F03001D160D16841F015
:1003C0001001D16040F60002C4F20202116821F46B
:1003D00040711160116841F480711160516821F021
:1003E00010015160916821F440719160916841F46D
:1003F00000719160D16821F44071D160D16841F4FD
:100400008071D16040F60002C4F20202116821F44A
:1004100040611160116841F480611160516821F000
:1004200020015160916821F440619160916841F42C
:1004300000619160D16821F44061D160D16841F4DC
:100440008061D16040F60042C4F20202116821F0DE
:1004500030011160116841F010011160516821F004
:1004600004015160916821F030019160916841F080
:1004700020019160D16821F03001D160D16841F054
:100480001001D16040F60002C4F20202116821F4AA
:1004900040011160116841F480011160516821F43C
:1004A00000615160916821F440019160916841F4CC
:1004B00000019160D16821F44001D160D16841F41C
:1004C0008001D16040F60002C4F20202116821F0FE
:1004D0000C011160116841F004011160516821F0B4
:1004E00002015160916821F00C019160916841F026
:1004F00008019160D16821F00C01D160D16841F010
:100500000401D16040F20042C4F20202116821F4F9
:1005100040711160116841F480711160516821F0DF
:1005200010015160916821F440719160916841F42B
:1005300000719160D16821F44071D160D16841F4BB
:100540008071D16040F20002C4F20202116821F011
:1005500040411160916821F040419160916841F003
:1005600000419160D16821F04041D160D16841F0F3
:100570008041D16040F60002C4F20202116821F409
:1005800040311160916821F440319160916841F4EB
:1005900000319160D16821F44031D160D16841F4DB
:1005A0008031D160704702B440F20042C4F20202CE
:1005B0004FF01001916140F60002C4F202024FF0C8
:1005C00002019161DFE810F010005800A000E8007F
:1005D00030017801C001080250029802E0022803AD
:1005E0007003B8030004480440F60002C4F202029B
:1005F0004FF40011916140F20042C4F202024FF444
:100600000031916140F20002C4F202024FF4003165
:10061000916140F20042C4F202024FF40011916174
:1006200040F20042C4F202024FF00061916140F6D4
:100630000002C4F202024FF48021916140F60002F0
:10064000C4F202024FF01001916140F20042C4F284
:1006500002024FF00101916140F60042C4F2020231
:100660004FF48021916140F60042C4F202024FF043
:100670000401916100F038BC40F60002C4F20202AD
:100680004FF02001916140F20042C4F202024FF4A7
:100690000031916140F20002C4F202024FF40031D5
:1006A000916140F20042C4F202024FF020019161D8
:1006B00040F20042C4F202024FF40061916140F640
:1006C0000002C4F202024FF00401916140F6000200
:1006D000C4F202024FF01001916140F20042C4F2F4
:1006E00002024FF00101916140F60042C4F20202A1
:1006F0004FF48021916140F60042C4F202024FF0B3
:100700000401916100F0F0BB40F60002C4F2020265
:100710004FF40011916140F20042C4F202024FF422
:100720000031916140F20002C4F202024FF0020176
:10073000916140F20042C4F202024FF40011916153
:1007400040F20042C4F202024FF00061916140F6B3
:100750000002C4F202024FF00401916140F600026F
:10076000C4F202024FF48011916140F20042C4F2DF
:1007700002024FF00101916140F60042C4F2020210
:100780004FF48021916140F60042C4F202024FF022
:100790000401916100F0A8BB40F60002C4F202021D
:1007A0004FF40011916140F20042C4F202024FF492
:1007B0000031916140F20002C4F202024FF40031B4
:1007C000916140F20042C4F202024FF400119161C3
:1007D00040F20042C4F202024FF40061916140F61F
:1007E0000002C4F202024FF00401916140F60002DF
:1007F000C4F202024FF48011916140F20042C4F24F
:1008000002024FF00101916140F60042C4F202027F
:100810004FF48021916140F60042C4F202024FF091
:100820000401916100F060BB40F60002C4F20202D4
:100830004FF02001916140F20042C4F202024FF4F5
:100840000031916140F20002C4F202024FF4003123
:10085000916140F20042C4F202024FF02001916126
:1008600040F20042C4F202024FF40061916140F68E
:100870000002C4F202024FF48021916140F60002AE
:10088000C4F202024FF48011916140F20042C4F2BE
:1008900002024FF00101916140F60042C4F20202EF
:1008A0004FF48021916140F60042C4F202024FF001
:1008B0000401916100F018BB40F60002C4F202028C
:1008C0004FF40011916140F20042C4F202024FF075
:1008D0000201916140F20002C4F202024FF40031C1
:1008E000916140F20042C4F202024FF400119161A2
:1008F00040F20042C4F202024FF40061916140F6FE
:100900000002C4F202024FF48021916140F600021D
:10091000C4F202024FF48011916140F20042C4F22D
:1009200002024FF00101916140F60042C4F202025E
:100930004FF48021916140F60042C4F202024FF070
:100940000401916100F0D0BA40F60002C4F2020244
:100950004FF40011916140F20042C4F202024FF0E4
:100960000201916140F20002C4F202024FF4003130
:10097000916140F20042C4F202024FF40011916111
:1009800040F20042C4F202024FF00061916140F671
:100990000002C4F202024FF48021916140F600028D
:1009A000C4F202024FF48011916140F20042C4F29D
:1009B00002024FF00101916140F60042C4F20202CE
:1009C0004FF48021916140F60042C4F202024FF0E0
:1009D0000401916100F088BA40F60002C4F20202FC
:1009E0004FF40011916140F20042C4F202024FF450
:1009F0000031916140F20002C4F202024FF4003172
:100A0000916140F20042C4F202024FF02001916174
:100A100040F20042C4F202024FF40061916140F6DC
:100A20000002C4F202024FF00401916140F600029C
:100A3000C4F202024FF01001916140F20042C4F290
:100A400002024FF00101916140F60042C4F202023D
:100A50004FF48021916140F60042C4F202024FF04F
:100A60000401916100F040BA40F60002C4F20202B3
:100A70004FF40011916140F20042C4F202024FF4BF
:100A80000031916140F20002C4F202024FF40031E1
:100A9000916140F20042C4F202024FF400119161F0
:100AA00040F20042C4F202024FF00061916140F650
:100AB0000002C4F202024FF48021916140F600026C
:100AC000C4F202024FF48011916140F20042C4F27C
:100AD00002024FF00101916140F60042C4F20202AD
:100AE0004FF48021916140F60042C4F202024FF0BF
:100AF0000401916100F0F8B940F60002C4F202026C
:100B00004FF40011916140F20042C4F202024FF42E
:100B10000031916140F20002C4F202024FF4003150
:100B2000916140F20042C4F202024FF02001916153
:100B300040F20042C4F202024FF40061916140F6BB
:100B40000002C4F202024FF48021916140F60002DB
:100B5000C4F202024FF48011916140F20042C4F2EB
:100B600002024FF00101916140F60042C4F202021C
:100B70004FF48021916140F60042C4F202024FF02E
:100B80000401916100F0B0B940F60002C4F2020223
:100B90004FF40011916140F20042C4F202024FF49E
:100BA0000031916140F20002C4F202024FF40031C0
:100BB000916140F20042C4F202024FF020019161C3
:100BC00040F20042C4F202024FF00061916140F62F
:100BD0000002C4F202024FF48021916140F600024B
:100BE000C4F202024FF48011916140F20042C4F25B
:100BF00002024FF00101916140F60042C4F202028C
:100C00004FF48021916140F60042C4F202024FF09D
:100C10000401916100F068B940F60002C4F20202DA
:100C20004FF02001916140F20042C4F202024FF005
:100C30000201916140F20002C4F202024FF400315D
:100C4000916140F20042C4F202024FF4001191613E
:100C500040F20042C4F202024FF00061916140F69E
:100C60000002C4F202024FF48021916140F60002BA
:100C7000C4F202024FF48011916140F20042C4F2CA
:100C800002024FF00101916140F60042C4F20202FB
:100C90004FF48021916140F60042C4F202024FF00D
:100CA0000401916100F020B940F60002C4F2020292
:100CB0004FF40011916140F20042C4F202024FF081
:100CC0000201916140F20002C4F202024FF00201FF
:100CD000916140F20042C4F202024FF400119161AE
:100CE00040F20042C4F202024FF00061916140F60E
:100CF0000002C4F202024FF48021916140F600022A
:100D0000C4F202024FF01001916140F20042C4F2BD
:100D100002024FF00101916140F60042C4F202026A
:100D20004FF48021916140F60042C4F202024FF07C
:100D30000401916100F0D8B840F60002C4F202024A
:100D40004FF02001916140F20042C4F202024FF4E0
:100D50000031916140F20002C4F202024FF400310E
:100D6000916140F20042C4F202024FF4001191611D
:100D700040F20042C4F202024FF00061916140F67D
:100D80000002C4F202024FF00401916140F6000239
:100D9000C4F202024FF48011916140F20042C4F2A9
:100DA00002024FF00101916140F60042C4F20202DA
:100DB0004FF48021916140F60042C4F202024FF0EC
:100DC0000401916100F090B840F60002C4F2020202
:100DD0004FF40011916140F20042C4F202024FF060
:100DE0000201916140F20002C4F202024FF00201DE
:100DF000916140F20042C4F202024FF4001191618D
:100E000040F20042C4F202024FF00061916140F6EC
:100E10000002C4F202024FF48021916140F6000208
:100E2000C4F202024FF48011916140F20042C4F218
:100E300002024FF00101916140F60042C4F2020249
:100E40004FF48021916140F60042C4F202024FF05B
:100E50000401916100F048B840F60002C4F20202B9
:100E60004FF40011916140F20042C4F202024FF0CF
:100E70000201916140F20002C4F202024FF002014D
:100E8000916140F20042C4F202024FF020019161F0
:100E900040F20042C4F202024FF00061916140F65C
:100EA0000002C4F202024FF48021916140F6000278
:100EB000C4F202024FF48011916140F20042C4F288
:100EC00002024FF00101916140F60042C4F20202B9
:100ED0004FF48021916140F60042C4F202024FF0CB
:100EE0000401916100F000B802BCDFE811F00500D8
:100EF0004D009500DD00250140F20042C4F20202DF
:100F00004FF02001916140F20042C4F202024FF41E
:100F10000061916140F20042C4F202024FF001010F
:100F2000916140F20042C4F202024FF0020191616D
:100F300040F60002C4F202024FF01001916140F24B
:100F40000002C4F202024FF00201916140F6000279
:100F5000C4F202024FF00401916140F60002C4F2B3
:100F600002024FF40011916140F60002C4F2020245
:100F70004FF00061916140F60002C4F202024FF4AA
:100F80000061916100F020B940F20042C4F2020217
:100F90004FF02001916140F20042C4F202024FF48E
:100FA0000061916140F20042C4F202024FF001017F
:100FB000916140F20042C4F202024FF002019161DD
:100FC00040F60002C4F202024FF01001916140F2BB
:100FD0000002C4F202024FF00201916140F60002E9
:100FE000C4F202024FF48021916140F60002C4F283
:100FF00002024FF02001916140F60002C4F20202A9
:101000004FF00061916140F60002C4F202024FF419
:101010000061916100F0D8B840F20042C4F20202CF
:101020004FF02001916140F20042C4F202024FF4FD
:101030000061916140F20042C4F202024FF00101EE
:10104000916140F20042C4F202024FF0020191614C
:1010500040F60002C4F202024FF01001916140F22A
:101060000002C4F202024FF40031916140F6000226
:10107000C4F202024FF00401916140F60002C4F292
:1010800002024FF02001916140F60002C4F2020218
:101090004FF00061916140F60002C4F202024FF489
:1010A0000061916100F090B840F20042C4F2020287
:1010B0004FF02001916140F20042C4F202024FF46D
:1010C0000061916140F20042C4F202024FF001015E
:1010D000916140F20042C4F202024FF002019161BC
:1010E00040F60002C4F202024FF48011916140F216
:1010F0000002C4F202024FF00201916140F60002C8
:10110000C4F202024FF00401916140F60002C4F201
:1011100002024FF02001916140F60002C4F2020287
:101120004FF00061916140F60002C4F202024FF4F8
:101130000061916100F048B840F20042C4F202023E
:101140004FF02001916140F20042C4F202024FF4DC
:101150000061916140F20042C4F202024FF00101CD
:10116000916140F20042C4F202024FF400319161F9
:1011700040F60002C4F202024FF01001916140F209
:101180000002C4F202024FF00201916140F6000237
:10119000C4F202024FF00401916140F60002C4F271
:1011A00002024FF02001916140F60002C4F20202F7
:1011B0004FF00061916140F60002C4F202024FF468
:1011C0000061916100F000B840F60002C4F2020232
:1011D0004FF40031916140F20042C4F202024FF438
:1011E00080119161704740F60002C4F202024FF094
:1011F0000201916140F20042C4F202024FF010017C
:101200009161DFE810F00D007300D9003F01A501E6
:101210000B027102D7023D03A30309046F04D50436
:1012200040F60002C4F202024FF02001916140F248
:101230000042C4F202024FF00201916140F200024A
:10124000C4F202024FF00201916140F20042C4F286
:1012500002024FF40011916140F20042C4F2020216
:101260004FF40061916140F60002C4F202024FF0B7
:101270000401916140F60002C4F202024FF0100135
:10128000916140F20042C4F202024FF0010191610B
:1012900040F60042C4F202024FF48021916140F610
:1012A0000042C4F202024FF00401916140F60002D4
:1012B000C4F202024FF40031916140F20042C4F2E4
:1012C00002024FF40011916140F20002C4F20202E6
:1012D000106910F400404FEAD03040F20042C4F2EE
:1012E00002024FF02001916100F0C8BC40F60002FC
:1012F000C4F202024FF02001916140F20042C4F2B8
:1013000002024FF00201916140F20002C4F20202B7
:101310004FF00201916140F20042C4F202024FF428
:101320000011916140F20042C4F202024FF40061E8
:10133000916140F60002C4F202024FF00401916193
:1013400040F60002C4F202024FF01001916140F237
:101350000042C4F202024FF00101916140F60042E6
:10136000C4F202024FF48021916140F60042C4F2BF
:1013700002024FF00401916140F60002C4F2020241
:101380004FF40031916140F20042C4F202024FF486
:101390000011916140F60002C4F20202106910F4DB
:1013A00080704FEA102040F20042C4F202024FF077
:1013B0002001916100F062BC40F60002C4F202021A
:1013C0004FF02001916140F20042C4F202024FF05E
:1013D0000201916140F20002C4F202024FF00201E8
:1013E000916140F20042C4F202024FF0200191618B
:1013F00040F20042C4F202024FF00061916140F6F7
:101400000002C4F202024FF00401916140F60002B2
:10141000C4F202024FF01001916140F20042C4F2A6
:1014200002024FF00101916140F60042C4F2020253
:101430004FF48021916140F60042C4F202024FF065
:101440000401916140F60002C4F202024FF400313F
:10145000916140F20042C4F202024FF000619161DA
:1014600040F20002C4F20202106910F400404FEA98
:10147000D03040F20042C4F202024FF400619161A8
:1014800000F0FCBB40F60002C4F202024FF0200163
:10149000916140F20042C4F202024FF002019161F8
:1014A00040F20002C4F202024FF00201916140F2E8
:1014B0000042C4F202024FF02001916140F200426A
:1014C000C4F202024FF00061916140F60002C4F2E2
:1014D00002024FF00401916140F60002C4F20202E0
:1014E0004FF01001916140F20042C4F202024FF04D
:1014F0000101916140F60042C4F202024FF48021E2
:10150000916140F60042C4F202024FF00401916181
:1015100040F60002C4F202024FF40031916140F241
:101520000042C4F202024FF00061916140F60002F5
:10153000C4F20202106910F480704FEA102040F2E9
:101540000042C4F202024FF40061916100F096BBC8
:1015500040F60002C4F202024FF02001916140F215
:101560000042C4F202024FF00201916140F2000217
:10157000C4F202024FF00201916140F20042C4F253
:1015800002024FF02001916140F20042C4F20202D7
:101590004FF40061916140F60002C4F202024FF084
:1015A0000401916140F60002C4F202024FF0100102
:1015B000916140F20042C4F202024FF48031916125
:1015C00040F60042C4F202024FF48021916140F6DD
:1015D0000042C4F202024FF00401916140F60002A1
:1015E000C4F202024FF40031916140F20042C4F2B1
:1015F00002024FF48031916140F20002C4F2020213
:10160000106910F400404FEAD03040F20042C4F2BA
:1016100002024FF00101916100F030BB40F6000280
:10162000C4F202024FF02001916140F20042C4F284
:1016300002024FF00201916140F20002C4F2020284
:101640004FF00201916140F20042C4F202024FF0F9
:101650002001916140F20042C4F202024FF40061A5
:10166000916140F60002C4F202024FF00401916160
:1016700040F60002C4F202024FF01001916140F204
:101680000042C4F202024FF48031916140F6004200
:10169000C4F202024FF48021916140F60042C4F28C
:1016A00002024FF00401916140F60002C4F202020E
:1016B0004FF40031916140F20042C4F202024FF453
:1016C0008031916140F60002C4F20202106910F408
:1016D00080704FEA102040F20042C4F202024FF044
:1016E0000101916100F0CABA40F60002C4F20202A0
:1016F0004FF02001916140F20042C4F202024FF427
:101700000031916140F20002C4F202024FF0020186
:10171000916140F20042C4F202024FF02001916157
:1017200040F20042C4F202024FF40061916140F6BF
:101730000002C4F202024FF00401916140F600027F
:10174000C4F202024FF01001916140F20042C4F273
:1017500002024FF00101916140F60042C4F2020220
:101760004FF48021916140F60042C4F202024FF032
:101770000401916140F60002C4F202024FF400310C
:10178000916140F20042C4F202024FF400319161D3
:1017900040F20002C4F20202106910F400404FEA65
:1017A000D03040F20042C4F202024FF002019161D7
:1017B00000F064BA40F60002C4F202024FF02001C9
:1017C000916140F20042C4F202024FF40031916193
:1017D00040F20002C4F202024FF00201916140F2B5
:1017E0000042C4F202024FF02001916140F2004237
:1017F000C4F202024FF40061916140F60002C4F2AB
:1018000002024FF00401916140F60002C4F20202AC
:101810004FF01001916140F20042C4F202024FF019
:101820000101916140F60042C4F202024FF48021AE
:10183000916140F60042C4F202024FF0040191614E
:1018400040F60002C4F202024FF40031916140F20E
:101850000042C4F202024FF40031916140F60002EE
:10186000C4F20202106910F480704FEA102040F2B6
:101870000042C4F202024FF00201916100F0FEB991
:1018800040F60002C4F202024FF02001916140F2E2
:101890000042C4F202024FF00201916140F20002E4
:1018A000C4F202024FF00201916140F20042C4F220
:1018B00002024FF02001916140F20042C4F20202A4
:1018C0004FF40061916140F60002C4F202024FF051
:1018D0000401916140F60002C4F202024FF480114B
:1018E000916140F20042C4F202024FF001019161A5
:1018F00040F60042C4F202024FF48021916140F6AA
:101900000042C4F202024FF00401916140F600026D
:10191000C4F202024FF40031916140F60002C4F2B9
:1019200002024FF48011916140F20002C4F20202FF
:10193000106910F400404FEAD03040F60002C4F2C3
:1019400002024FF01001916100F098B940F60002D8
:10195000C4F202024FF02001916140F20042C4F251
:1019600002024FF00201916140F20002C4F2020251
:101970004FF00201916140F20042C4F202024FF0C6
:101980002001916140F20042C4F202024FF4006172
:10199000916140F60002C4F202024FF0040191612D
:1019A00040F60002C4F202024FF48011916140F24D
:1019B0000042C4F202024FF00101916140F6004280
:1019C000C4F202024FF48021916140F60042C4F259
:1019D00002024FF00401916140F60002C4F20202DB
:1019E0004FF40031916140F60002C4F202024FF45C
:1019F0008011916140F60002C4F20202106910F4F5
:101A000080704FEA102040F60002C4F202024FF04C
:101A10001001916100F032B940F60002C4F20202F6
:101A20004FF40011916140F20042C4F202024FF003
:101A30000201916140F20002C4F202024FF0020181
:101A4000916140F20042C4F202024FF02001916124
:101A500040F20042C4F202024FF40061916140F68C
:101A60000002C4F202024FF00401916140F600024C
:101A7000C4F202024FF01001916140F20042C4F240
:101A800002024FF00101916140F60042C4F20202ED
:101A90004FF48021916140F60042C4F202024FF0FF
:101AA0000401916140F60002C4F202024FF40031D9
:101AB000916140F60002C4F202024FF400119161FC
:101AC00040F20002C4F20202106910F400404FEA32
:101AD000D03040F60002C4F202024FF020019161C2
:101AE00000F0CCB840F60002C4F202024FF400113C
:101AF000916140F20042C4F202024FF00201916192
:101B000040F20002C4F202024FF00201916140F281
:101B10000042C4F202024FF02001916140F2004203
:101B2000C4F202024FF40061916140F60002C4F277
:101B300002024FF00401916140F60002C4F2020279
:101B40004FF01001916140F20042C4F202024FF0E6
:101B50000101916140F60042C4F202024FF480217B
:101B6000916140F60042C4F202024FF0040191611B
:101B700040F60002C4F202024FF40031916140F6D7
:101B80000002C4F202024FF40011916140F600021B
:101B9000C4F20202106910F480704FEA102040F67F
:101BA0000002C4F202024FF02001916100F066B819
:101BB00040F60002C4F202024FF02001916140F2AF
:101BC0000042C4F202024FF00201916140F20002B1
:101BD000C4F202024FF40031916140F20042C4F2BB
:101BE00002024FF02001916140F20042C4F2020271
:101BF0004FF40061916140F60002C4F202024FF01E
:101C00000401916140F60002C4F202024FF010019B
:101C1000916140F20042C4F202024FF00101916171
:101C200040F60042C4F202024FF48021916140F676
:101C30000042C4F202024FF00401916140F600023A
:101C4000C4F202024FF40031916140F20002C4F28A
:101C500002024FF40031916140F20002C4F202022C
:101C6000106910F400404FEAD03040F20002C4F294
:101C700002024FF00201916100F000B80FB500F0D0
:101C800004F8BDE80F4000F083B87648764B198819
:101C900050F8212001F101010429ACBF40F20000FD
:101CA000084618601046FEF77EBC704B53F82020A3
:101CB000DFE802F0030C1B2A3342002940F06D805C
:101CC00040F2010243F8202000F067B8002940F0FC
:101CD000068040F2020243F8202000F05EB840F295
:101CE000000243F8202000F058B8002940F0068098
:101CF00040F2030243F8202000F02DB840F2000229
:101D000043F8202000F049B8002900F0468040F256
:101D1000040243F8202000F040B8002940F006807B
:101D200040F2030243F8202000F037B840F20502E9
:101D300043F8202000F031B8002940F0068040F23E
:101D4000030243F8202000F028B840F2000243F8D4
:101D5000202000F000B881F0010140F2000242EAC8
:101D6000010201BC00F1010101B44FEA410142EA64
:101D700001023F48026000B500F0EAFE5DF804EBA6
:101D800000F00BB800B540F2000001B4FFF72BBA29
:101D9000014601BC01B4FFF788BF01BC00F101009E
:101DA0000D28FFF6F2AF5DF804EB704700B5314A3D
:101DB00092E803002B4B002800F006804FF002024F
:101DC00043F8221000F004B84FF0000243F822104C
:101DD0005DF804EB704700B5264A92E80300214BFA
:101DE000002800F01F80012904BF002200F011B874
:101DF000032904BF012200F00CB8052904BF022208
:101E000000F007B8072904BF032200F002B800F071
:101E100026B853F822100F29B8BF013143F8221019
:101E200000F01DB8022904BF002200F011B80429F7
:101E300004BF012200F00CB8062904BF022200F002
:101E400007B8082904BF032200F002B800F007B861
:101E500053F822100029C8BF013943F822105DF859
:101E600004EB7047A402002058000020600000200E
:101E7000E00200201803002070B446F20402C4F20D
:101E80000202106810F400604FEAD0207DD0DFF825
:101E900020160E68002E4FEA460640F005804FF0EF
:101EA0000001DFF81006016081A4DFF80C2611683C
:101EB00001F10101116046F20C02C4F20202116844
:101EC00041F40061116046F28802C4F20202106817
:101ED00010F400204FEAD04040F0028000F028804B
:101EE000DFF8D85520B4DFF8CC351A88B2F5806F0A
:101EF000A8BF002214444FF00001102900F0108008
:101F00002088344425F8020B3244B2F5806FA4BF18
:101F1000A2F58062A4F5806401F10101FFF7EDBF35
:101F20001A6046F29402C4F2020220BC15602CE052
:101F3000DFF88C5520B4DFF87C351A88B2F5806F55
:101F4000A8BF002214444FF00001102900F01080B7
:101F50002088344425F8020B3244B2F5806FA4BFC8
:101F6000A2F58062A4F5806401F10101FFF7EDBFE5
:101F70001A6046F29802C4F2020220BC156004E026
:101F80004FF00001DFF82C05016070BC704700BF06
:101F90000000000100020003000400050006000725
:101FA00000080009000A000B000C000D000E000FD5
:101FB000FF0FFF0EFF0DFF0CFF0BFF0AFF09FF08CD
:101FC000FF07FF06FF05FF04FF03FF02FF01FF00FD
:101FD0000000000000000000000000000000000001
:101FE000FF0FFF0FFF0FFF0FFF0FFF0FFF0FFF0F81
:101FF000FF0FFF0FFF0FFF0FFF0FFF0FFF0FFF0F71
:1020000000000000000000000000000000000000D0
:1020100000000000000000000000000000000000C0
:1020200000000000000000000000000000000000B0
:10203000000F100F200F300F400F500F600F700F68
:10204000800F900FA00FB00FC00FD00FE00FF00F58
:10205000FF0FEF0FDF0FCF0FBF0FAF0F9F0F8F0FD0
:102060007F0F6F0F5F0F4F0F3F0F2F0F1F0F0F0FC0
:10207000FF0FFF0EFF0DFF0CFF0BFF0AFF09FF080C
:10208000FF07FF06FF05FF04FF03FF02FF01FF003C
:102090000000000100020003000400050006000724
:1020A00000080009000A000B000C000D000E000FD4
:1020B0000000100020003000400050006000700060
:1020C00080009000A000B000C000D000E000F00050
:1020D0000001100120013001400150016001700138
:1020E00080019001A001B001C001D001E001F00128
:1020F0000002100220023002400250026002700210
:1021000080029002A002B002C002D002E002F002FF
:1021100000031003200330034003500360037003E7
:1021200080039003A003B003C003D003E003F003D7
:1021300000041004200430044004500460047004BF
:1021400080049004A004B004C004D004E004F004AF
:102150000005100520053005400550056005700597
:1021600080059005A005B005C005D005E005F00587
:10217000000610062006300640065006600670066F
:1021800080069006A006B006C006D006E006F0065F
:102190000007100720073007400750076007700747
:1021A00080079007A007B007C007D007E007F00737
:1021B000000810082008300840085008600870081F
:1021C00080089008A008B008C008D008E008F0080F
:1021D00000091009200930094009500960097009F7
:1021E00080099009A009B009C009D009E009F009E7
:1021F000000A100A200A300A400A500A600A700ACF
:10220000800A900AA00AB00AC00AD00AE00AF00ABE
:10221000000B100B200B300B400B500B600B700BA6
:10222000800B900BA00BB00BC00BD00BE00BF00B96
:10223000000C100C200C300C400C500C600C700C7E
:10224000800C900CA00CB00CC00CD00CE00CF00C6E
:10225000000D100D200D300D400D500D600D700D56
:10226000800D900DA00DB00DC00DD00DE00DF00D46
:10227000000E100E200E300E400E500E600E700E2E
:10228000800E900EA00EB00EC00ED00EE00EF00E1E
:10229000000F100F200F300F400F500F600F700F06
:1022A000800F900FA00FB00FC00FD00FE00FF00FF6
:1022B000FF0FEF0FDF0FCF0FBF0FAF0F9F0F8F0F6E
:1022C0007F0F6F0F5F0F4F0F3F0F2F0F1F0F0F0F5E
:1022D000FF0EEF0EDF0ECF0EBF0EAF0E9F0E8F0E56
:1022E0007F0E6F0E5F0E4F0E3F0E2F0E1F0E0F0E46
:1022F000FF0DEF0DDF0DCF0DBF0DAF0D9F0D8F0D3E
:102300007F0D6F0D5F0D4F0D3F0D2F0D1F0D0F0D2D
:10231000FF0CEF0CDF0CCF0CBF0CAF0C9F0C8F0C25
:102320007F0C6F0C5F0C4F0C3F0C2F0C1F0C0F0C15
:10233000FF0BEF0BDF0BCF0BBF0BAF0B9F0B8F0B0D
:102340007F0B6F0B5F0B4F0B3F0B2F0B1F0B0F0BFD
:10235000FF0AEF0ADF0ACF0ABF0AAF0A9F0A8F0AF5
:102360007F0A6F0A5F0A4F0A3F0A2F0A1F0A0F0AE5
:10237000FF09EF09DF09CF09BF09AF099F098F09DD
:102380007F096F095F094F093F092F091F090F09CD
:10239000FF08EF08DF08CF08BF08AF089F088F08C5
:1023A0007F086F085F084F083F082F081F080F08B5
:1023B000FF07EF07DF07CF07BF07AF079F078F07AD
:1023C0007F076F075F074F073F072F071F070F079D
:1023D000FF06EF06DF06CF06BF06AF069F068F0695
:1023E0007F066F065F064F063F062F061F060F0685
:1023F000FF05EF05DF05CF05BF05AF059F058F057D
:102400007F056F055F054F053F052F051F050F056C
:10241000FF04EF04DF04CF04BF04AF049F048F0464
:102420007F046F045F044F043F042F041F040F0454
:10243000FF03EF03DF03CF03BF03AF039F038F034C
:102440007F036F035F034F033F032F031F030F033C
:10245000FF02EF02DF02CF02BF02AF029F028F0234
:102460007F026F025F024F023F022F021F020F0224
:10247000FF01EF01DF01CF01BF01AF019F018F011C
:102480007F016F015F014F013F012F011F010F010C
:10249000FF00EF00DF00CF00BF00AF009F008F0004
:1024A0007F006F005F004F003F002F001F000F00F4
:1024B0001C00002098020020F40200209800002058
:1024C0009801002030B5012183B0022000F00CFA01
:1024D00001241D23002501A88DF804308DF8055036
:1024E0008DF806408DF8074000F068FA284600F0A5
:1024F000A5FA204600F0A2FA022000F09FFA03207D
:1025000000F09CFA284600F0C3FA204600F0C0FA1A
:10251000022000F0BDFA032000F0BAFA00F0F0FA51
:10252000FDF790FE03B030BD70B5FFF7CBFF384A22
:10253000384B1168384E394C49F68172C1F25E62EF
:10254000A2FB0102120D013A4FF4806000251946EA
:102550003280C4F200004FF6FF725A601D801D8168
:102560005D8000F063F84FF4806001223188C4F28E
:10257000000000F0A7F82A4B25801B88A5814FF4A6
:10258000806001269BB2C4F200002146A3606680F1
:1025900000F0AAF84FF48060C4F20000294600F071
:1025A00071F9204B66801B884FF480609BB2C4F2A7
:1025B00000002146A36000F0DFF84FF48060C4F211
:1025C0000000294600F066F9174B66801B884FF41F
:1025D00080609BB2C4F200002146A36000F018F9AD
:1025E0004FF48060C4F20000294600F05BF94FF41C
:1025F0008060C4F200001021324600F05DF94FF413
:102600008060C4F20000314600F060F8FEE700BFD1
:1026100008000020F8020020A0020020040300208F
:10262000000000200200002004000020002270B4FE
:102630004FF48064C4F201020388C4F201049042A2
:1026400018BFA0429BB214BF0022012208D04FF451
:102650008064C4F20004B0F1804F18BFA04223D1BF
:102660004FF68F754C881D4045EA04034FF4A05681
:102670004FF48055C4F20005C4F20006B04218BF02
:10268000A8421FBF0D894FF6FF441C4044EA0503D2
:102690004D680C880380C56204850AB18B7A038675
:1026A0000123838270BC70474FF440654FF400648F
:1026B000C4F20005C4F20004A04218BFA842D5D15C
:1026C000CEE700BF01858282704700BF038829B929
:1026D00023F001031B041B0C038070479BB243F0E3
:1026E00001030380704700BF2DE9F001048C8D8940
:1026F0004F88B1F800C024F001042404240C0484A1
:10270000038C8488028B2F4323F00203002522F0E0
:1027100073024FF4806612041B04C4F20106C4F273
:102720000105120C1B0CBFB2A84218BFB042A4B2E4
:1027300042EA0C0247EA030316D14FF6F775B1F8E7
:102740000EC0B1F812800F8A8E881D4045EA0C0C2D
:102750004FF6FB734FF6FF4548EA070725400CEAA2
:102760000303BCB233432C438968848002834163F2
:102770000384BDE8F00170472DE9F003048C8D89D6
:10278000B1F802C00F8824F480742404240C04845B
:10279000028C8488838B22F400721204120C42EAA9
:1027A000052223F0730300254FF480661B04C4F256
:1027B0000106C4F201051B0C42EA0C22A84218BF14
:1027C000B042A4B243EA070392B219D14FF2FF76A6
:1027D000B1F80E90B1F81080B1F804C04F8A1640DD
:1027E0004CF6FF75254046EA09264FF6FF32324087
:1027F00045EA081442EA0C2244EA071492B2A4B251
:10280000896884808383C1630284BDE8F0037047D4
:10281000F0B4048C8D89B1F800C04F8824F4805442
:102820002404240C0484028C8488838B22F40052B8
:102830001204120C42EA053223F4E64300254FF459
:102840008066C4F20105C4F201061B041B0CA842F9
:1028500018BFB04208BF0E8A8968A4B202BF4BF607
:10286000FF75254045EA861443EA0C2342EA073205
:102870009BB292B208BFA4B28480838301640284B5
:10288000F0BC7047038B23F008031B041B0C194397
:1028900001837047838B23F008031B041B0C19432F
:1028A00081837047838B23F400631B041B0C43EA72
:1028B00001218BB28383704783899BB21AB923EAC3
:1028C0000101818170471943818170474FF4605342
:1028D000C4F202031A6B19B922EA000018637047A8
:1028E00010431863704700BF4FF46053C4F20203F3
:1028F0001A6C19B922EA0000186470471043186472
:10290000704700BF00222DE9F00713460E6801272B
:102910004FF0030803E001330232102B2BD007FAEB
:1029200003F404EA0605A542F5D1D0F8009091F829
:1029300004C008FA02F4E44304EA0909C0F800906C
:10294000D0F800900CFA02FA0CF1FF3C4AEA0909AF
:10295000BCF1010FC0F8009010D9C56891F807C00C
:102960002C40C460C5680CFA02F401332C430232D7
:10297000102BC460D3D1BDE8F0077047D0F808A091
:1029800091F8059091F806C004EA0A0AC0F808A078
:10299000D0F808A009FA02F949EA0A09C0F8089033
:1029A000D0F8049029EA0505456045680CFA03FC57
:1029B0001FFA8CFC4CEA05054560CEE7C37830B4BD
:1029C0007BB902784FF461435109CEF2000302F063
:1029D0001F022031012000FA02F243F8212030BC0E
:1029E00070474FF46D43CEF200034578DA6884787F
:1029F0000378D243C2F30222C2F10401C9B205FA3C
:102A000001F10F2545FA02F2C9B222400A4303F14F
:102A1000604303F561431201D2B283F800230278C8
:102A20004FF461435109CEF2000302F01F0201206E
:102A300000FA02F243F82120D1E700BF10B542F6B8
:102A4000F033C0F6000382B00446012153F82000A1
:102A5000FFF73CFF42F60042C0F6000240F20C03D2
:102A6000C2F2000332F8142053F82400009201232C
:102A70008DF8043000228DF80730694602238DF866
:102A800006208DF80530FFF73DFF02B010BD00BFF6
:102A900040F20C0242F60043C2F20002C0F600030C
:102AA00052F8202033F810301383704710B542F6E7
:102AB0000843C0F6000382B00446012153F8200009
:102AC000FFF704FF42F63842C0F6000240F224034A
:102AD000C2F2000332F8142053F8240000920123BC
:102AE0008DF8043000228DF80730694602238DF8F6
:102AF00006208DF80530FFF705FF02B010BD00BFBE
:102B000008B50020FFF7D2FF0120FFF7CFFF02201A
:102B1000FFF7CCFF0320FFF7C9FF0420FFF7C6FF34
:102B20000520FFF7C3FF0620FFF7C0FF0720FFF7D0
:102B3000BDFF0820FFF7BAFF0920FFF7B7FF0A2003
:102B4000FFF7B4FF0B20BDE80840FFF7AFBF00BFA1
:102B5000084A1368132B10B408D804680648591C97
:102B600040F823401160002010BC70474FF0FF3048
:102B7000FAE700BFD00200201803002030B40C4C4C
:102B800022687AB10B4B191F551E186801EB8201A0
:102B900005D053F8042F8B4243F8042CF9D125605B
:102BA00030BC70470120142363F34700F8E700BFEF
:102BB000D00200201803002008B5FFF7DFFF08BD92
:102BC00008B5FFF7F9FFC0F346030D2B06DC10F044
:102BD000010004D1044B1860044B186008BD024A80
:102BE0001360024A136008BD1C000020A4020020EC
:102BF00008000000080000000800000008000000B5
:102C000000100020004000800400000002000000CE
:102C100001000000020000000200000004000000AB
:102C20000400000002000000040000000800000092
:102C3000020000000400000020000200020020004A
:102C40000008040010000100020004001000000849
:102C500001A05635AA1A0000007A030A000C0240AF
:102C6000000C0240000C0240000C0240000000007A
:102C7000050000000008024000040240000002407D
:102C80000004024000040240000802400008024024
:102C90000004024000080240000C02400004024010
:102CA00000080240000000000000000000000000DA
:102CB0000000000000000000000000000000000014
:102CC0000000000000000000000000000000000004
:102CD00000000000000000000000000000000000F4
:102CE00000000000000000000000000000000000E4
:042F200000000000AD
:040000050800018965
:00000001FF
